{
	"data": {
		"bytecode": {
			"linkReferences": {},
			"object": "608060405234801561001057600080fd5b5060405161016a38038061016a8339818101604052602081101561003357600080fd5b8101908080519060200190929190505050806000819055505061010f8061005b6000396000f3fe60806040526004361060335760003560e01c80633ccfd60b14603e5780634c738909146052578063fba939f814607a576039565b36603957005b600080fd5b348015604957600080fd5b50605060a2565b005b348015605d57600080fd5b50606460cb565b6040518082815260200191505060405180910390f35b348015608557600080fd5b50608c60d3565b6040518082815260200191505060405180910390f35b60005460ab60cb565b111560c9573373ffffffffffffffffffffffffffffffffffffffff16ff5b565b600047905090565b6000548156fea2646970667358221220f7f6d41f232135dea10eeb1df24f5b91adff4e9c9708e8450fbc045c4a2b7e4464736f6c63430007060033",
			"opcodes": "PUSH1 0x80 PUSH1 0x40 MSTORE CALLVALUE DUP1 ISZERO PUSH2 0x10 JUMPI PUSH1 0x0 DUP1 REVERT JUMPDEST POP PUSH1 0x40 MLOAD PUSH2 0x16A CODESIZE SUB DUP1 PUSH2 0x16A DUP4 CODECOPY DUP2 DUP2 ADD PUSH1 0x40 MSTORE PUSH1 0x20 DUP2 LT ISZERO PUSH2 0x33 JUMPI PUSH1 0x0 DUP1 REVERT JUMPDEST DUP2 ADD SWAP1 DUP1 DUP1 MLOAD SWAP1 PUSH1 0x20 ADD SWAP1 SWAP3 SWAP2 SWAP1 POP POP POP DUP1 PUSH1 0x0 DUP2 SWAP1 SSTORE POP POP PUSH2 0x10F DUP1 PUSH2 0x5B PUSH1 0x0 CODECOPY PUSH1 0x0 RETURN INVALID PUSH1 0x80 PUSH1 0x40 MSTORE PUSH1 0x4 CALLDATASIZE LT PUSH1 0x33 JUMPI PUSH1 0x0 CALLDATALOAD PUSH1 0xE0 SHR DUP1 PUSH4 0x3CCFD60B EQ PUSH1 0x3E JUMPI DUP1 PUSH4 0x4C738909 EQ PUSH1 0x52 JUMPI DUP1 PUSH4 0xFBA939F8 EQ PUSH1 0x7A JUMPI PUSH1 0x39 JUMP JUMPDEST CALLDATASIZE PUSH1 0x39 JUMPI STOP JUMPDEST PUSH1 0x0 DUP1 REVERT JUMPDEST CALLVALUE DUP1 ISZERO PUSH1 0x49 JUMPI PUSH1 0x0 DUP1 REVERT JUMPDEST POP PUSH1 0x50 PUSH1 0xA2 JUMP JUMPDEST STOP JUMPDEST CALLVALUE DUP1 ISZERO PUSH1 0x5D JUMPI PUSH1 0x0 DUP1 REVERT JUMPDEST POP PUSH1 0x64 PUSH1 0xCB JUMP JUMPDEST PUSH1 0x40 MLOAD DUP1 DUP3 DUP2 MSTORE PUSH1 0x20 ADD SWAP2 POP POP PUSH1 0x40 MLOAD DUP1 SWAP2 SUB SWAP1 RETURN JUMPDEST CALLVALUE DUP1 ISZERO PUSH1 0x85 JUMPI PUSH1 0x0 DUP1 REVERT JUMPDEST POP PUSH1 0x8C PUSH1 0xD3 JUMP JUMPDEST PUSH1 0x40 MLOAD DUP1 DUP3 DUP2 MSTORE PUSH1 0x20 ADD SWAP2 POP POP PUSH1 0x40 MLOAD DUP1 SWAP2 SUB SWAP1 RETURN JUMPDEST PUSH1 0x0 SLOAD PUSH1 0xAB PUSH1 0xCB JUMP JUMPDEST GT ISZERO PUSH1 0xC9 JUMPI CALLER PUSH20 0xFFFFFFFFFFFFFFFFFFFFFFFFFFFFFFFFFFFFFFFF AND SELFDESTRUCT JUMPDEST JUMP JUMPDEST PUSH1 0x0 SELFBALANCE SWAP1 POP SWAP1 JUMP JUMPDEST PUSH1 0x0 SLOAD DUP2 JUMP INVALID LOG2 PUSH5 0x6970667358 0x22 SLT KECCAK256 0xF7 0xF6 0xD4 0x1F 0x23 0x21 CALLDATALOAD 0xDE LOG1 0xE 0xEB SAR CALLCODE 0x4F JUMPDEST SWAP2 0xAD SELFDESTRUCT 0x4E SWAP13 SWAP8 ADDMOD 0xE8 GASLIMIT 0xF 0xBC DIV 0x5C 0x4A 0x2B PUSH31 0x4464736F6C6343000706003300000000000000000000000000000000000000 "
		},
		"gasEstimates": {
			"creation": {
				"codeDepositCost": "54200",
				"executionCost": "infinite",
				"totalCost": "infinite"
			},
			"external": {
				"_goal()": "1027",
				"getMyBalance()": "215",
				"withdraw()": "30983"
			}
		},
		"methodIdentifiers": {
			"_goal()": "fba939f8",
			"getMyBalance()": "4c738909",
			"withdraw()": "3ccfd60b"
		}
	},
	"abi": [
		{
			"inputs": [
				{
					"internalType": "uint256",
					"name": "goal",
					"type": "uint256"
				}
			],
			"stateMutability": "nonpayable",
			"type": "constructor"
		},
		{
			"inputs": [],
			"name": "_goal",
			"outputs": [
				{
					"internalType": "uint256",
					"name": "",
					"type": "uint256"
				}
			],
			"stateMutability": "view",
			"type": "function"
		},
		{
			"inputs": [],
			"name": "getMyBalance",
			"outputs": [
				{
					"internalType": "uint256",
					"name": "",
					"type": "uint256"
				}
			],
			"stateMutability": "view",
			"type": "function"
		},
		{
			"inputs": [],
			"name": "withdraw",
			"outputs": [],
			"stateMutability": "nonpayable",
			"type": "function"
		},
		{
			"stateMutability": "payable",
			"type": "receive"
		}
	]
}